{
  "_format": "hh-sol-artifact-1",
  "contractName": "Metaverse",
  "sourceName": "contracts/Metaverse.sol",
  "abi": [
    {
      "inputs": [],
      "stateMutability": "nonpayable",
      "type": "constructor"
    },
    {
      "inputs": [
        {
          "internalType": "address",
          "name": "sender",
          "type": "address"
        },
        {
          "internalType": "uint256",
          "name": "balance",
          "type": "uint256"
        },
        {
          "internalType": "uint256",
          "name": "needed",
          "type": "uint256"
        },
        {
          "internalType": "uint256",
          "name": "tokenId",
          "type": "uint256"
        }
      ],
      "name": "ERC1155InsufficientBalance",
      "type": "error"
    },
    {
      "inputs": [
        {
          "internalType": "address",
          "name": "approver",
          "type": "address"
        }
      ],
      "name": "ERC1155InvalidApprover",
      "type": "error"
    },
    {
      "inputs": [
        {
          "internalType": "uint256",
          "name": "idsLength",
          "type": "uint256"
        },
        {
          "internalType": "uint256",
          "name": "valuesLength",
          "type": "uint256"
        }
      ],
      "name": "ERC1155InvalidArrayLength",
      "type": "error"
    },
    {
      "inputs": [
        {
          "internalType": "address",
          "name": "operator",
          "type": "address"
        }
      ],
      "name": "ERC1155InvalidOperator",
      "type": "error"
    },
    {
      "inputs": [
        {
          "internalType": "address",
          "name": "receiver",
          "type": "address"
        }
      ],
      "name": "ERC1155InvalidReceiver",
      "type": "error"
    },
    {
      "inputs": [
        {
          "internalType": "address",
          "name": "sender",
          "type": "address"
        }
      ],
      "name": "ERC1155InvalidSender",
      "type": "error"
    },
    {
      "inputs": [
        {
          "internalType": "address",
          "name": "operator",
          "type": "address"
        },
        {
          "internalType": "address",
          "name": "owner",
          "type": "address"
        }
      ],
      "name": "ERC1155MissingApprovalForAll",
      "type": "error"
    },
    {
      "inputs": [
        {
          "internalType": "address",
          "name": "owner",
          "type": "address"
        }
      ],
      "name": "OwnableInvalidOwner",
      "type": "error"
    },
    {
      "inputs": [
        {
          "internalType": "address",
          "name": "account",
          "type": "address"
        }
      ],
      "name": "OwnableUnauthorizedAccount",
      "type": "error"
    },
    {
      "anonymous": false,
      "inputs": [
        {
          "indexed": true,
          "internalType": "address",
          "name": "account",
          "type": "address"
        },
        {
          "indexed": true,
          "internalType": "address",
          "name": "operator",
          "type": "address"
        },
        {
          "indexed": false,
          "internalType": "bool",
          "name": "approved",
          "type": "bool"
        }
      ],
      "name": "ApprovalForAll",
      "type": "event"
    },
    {
      "anonymous": false,
      "inputs": [
        {
          "indexed": true,
          "internalType": "uint256",
          "name": "itemId",
          "type": "uint256"
        },
        {
          "indexed": false,
          "internalType": "string",
          "name": "name",
          "type": "string"
        },
        {
          "indexed": false,
          "internalType": "string",
          "name": "company",
          "type": "string"
        },
        {
          "indexed": false,
          "internalType": "uint256",
          "name": "price",
          "type": "uint256"
        },
        {
          "indexed": false,
          "internalType": "uint256",
          "name": "stock",
          "type": "uint256"
        }
      ],
      "name": "ItemListed",
      "type": "event"
    },
    {
      "anonymous": false,
      "inputs": [
        {
          "indexed": true,
          "internalType": "address",
          "name": "buyer",
          "type": "address"
        },
        {
          "indexed": false,
          "internalType": "uint256",
          "name": "itemId",
          "type": "uint256"
        },
        {
          "indexed": false,
          "internalType": "uint256",
          "name": "quantity",
          "type": "uint256"
        }
      ],
      "name": "ItemPurchased",
      "type": "event"
    },
    {
      "anonymous": false,
      "inputs": [
        {
          "indexed": true,
          "internalType": "address",
          "name": "previousOwner",
          "type": "address"
        },
        {
          "indexed": true,
          "internalType": "address",
          "name": "newOwner",
          "type": "address"
        }
      ],
      "name": "OwnershipTransferred",
      "type": "event"
    },
    {
      "anonymous": false,
      "inputs": [
        {
          "indexed": true,
          "internalType": "address",
          "name": "operator",
          "type": "address"
        },
        {
          "indexed": true,
          "internalType": "address",
          "name": "from",
          "type": "address"
        },
        {
          "indexed": true,
          "internalType": "address",
          "name": "to",
          "type": "address"
        },
        {
          "indexed": false,
          "internalType": "uint256[]",
          "name": "ids",
          "type": "uint256[]"
        },
        {
          "indexed": false,
          "internalType": "uint256[]",
          "name": "values",
          "type": "uint256[]"
        }
      ],
      "name": "TransferBatch",
      "type": "event"
    },
    {
      "anonymous": false,
      "inputs": [
        {
          "indexed": true,
          "internalType": "address",
          "name": "operator",
          "type": "address"
        },
        {
          "indexed": true,
          "internalType": "address",
          "name": "from",
          "type": "address"
        },
        {
          "indexed": true,
          "internalType": "address",
          "name": "to",
          "type": "address"
        },
        {
          "indexed": false,
          "internalType": "uint256",
          "name": "id",
          "type": "uint256"
        },
        {
          "indexed": false,
          "internalType": "uint256",
          "name": "value",
          "type": "uint256"
        }
      ],
      "name": "TransferSingle",
      "type": "event"
    },
    {
      "anonymous": false,
      "inputs": [
        {
          "indexed": false,
          "internalType": "string",
          "name": "value",
          "type": "string"
        },
        {
          "indexed": true,
          "internalType": "uint256",
          "name": "id",
          "type": "uint256"
        }
      ],
      "name": "URI",
      "type": "event"
    },
    {
      "inputs": [
        {
          "internalType": "string",
          "name": "_name",
          "type": "string"
        },
        {
          "internalType": "string",
          "name": "_company",
          "type": "string"
        },
        {
          "internalType": "string",
          "name": "_description",
          "type": "string"
        },
        {
          "internalType": "string",
          "name": "_imageURI",
          "type": "string"
        },
        {
          "internalType": "uint256",
          "name": "_price",
          "type": "uint256"
        },
        {
          "internalType": "uint256",
          "name": "_stock",
          "type": "uint256"
        }
      ],
      "name": "addItem",
      "outputs": [],
      "stateMutability": "nonpayable",
      "type": "function"
    },
    {
      "inputs": [
        {
          "internalType": "address",
          "name": "account",
          "type": "address"
        },
        {
          "internalType": "uint256",
          "name": "id",
          "type": "uint256"
        }
      ],
      "name": "balanceOf",
      "outputs": [
        {
          "internalType": "uint256",
          "name": "",
          "type": "uint256"
        }
      ],
      "stateMutability": "view",
      "type": "function"
    },
    {
      "inputs": [
        {
          "internalType": "address[]",
          "name": "accounts",
          "type": "address[]"
        },
        {
          "internalType": "uint256[]",
          "name": "ids",
          "type": "uint256[]"
        }
      ],
      "name": "balanceOfBatch",
      "outputs": [
        {
          "internalType": "uint256[]",
          "name": "",
          "type": "uint256[]"
        }
      ],
      "stateMutability": "view",
      "type": "function"
    },
    {
      "inputs": [
        {
          "internalType": "uint256",
          "name": "_itemId",
          "type": "uint256"
        },
        {
          "internalType": "uint256",
          "name": "_quantity",
          "type": "uint256"
        }
      ],
      "name": "buyItem",
      "outputs": [],
      "stateMutability": "payable",
      "type": "function"
    },
    {
      "inputs": [
        {
          "internalType": "uint256",
          "name": "_itemId",
          "type": "uint256"
        }
      ],
      "name": "getItemDetails",
      "outputs": [
        {
          "internalType": "string",
          "name": "",
          "type": "string"
        },
        {
          "internalType": "string",
          "name": "",
          "type": "string"
        },
        {
          "internalType": "string",
          "name": "",
          "type": "string"
        },
        {
          "internalType": "string",
          "name": "",
          "type": "string"
        },
        {
          "internalType": "uint256",
          "name": "",
          "type": "uint256"
        },
        {
          "internalType": "uint256",
          "name": "",
          "type": "uint256"
        }
      ],
      "stateMutability": "view",
      "type": "function"
    },
    {
      "inputs": [
        {
          "internalType": "address",
          "name": "_user",
          "type": "address"
        }
      ],
      "name": "getUserOwnedItems",
      "outputs": [
        {
          "internalType": "uint256[]",
          "name": "",
          "type": "uint256[]"
        }
      ],
      "stateMutability": "view",
      "type": "function"
    },
    {
      "inputs": [
        {
          "internalType": "address",
          "name": "account",
          "type": "address"
        },
        {
          "internalType": "address",
          "name": "operator",
          "type": "address"
        }
      ],
      "name": "isApprovedForAll",
      "outputs": [
        {
          "internalType": "bool",
          "name": "",
          "type": "bool"
        }
      ],
      "stateMutability": "view",
      "type": "function"
    },
    {
      "inputs": [
        {
          "internalType": "uint256",
          "name": "",
          "type": "uint256"
        }
      ],
      "name": "items",
      "outputs": [
        {
          "internalType": "string",
          "name": "name",
          "type": "string"
        },
        {
          "internalType": "string",
          "name": "company",
          "type": "string"
        },
        {
          "internalType": "string",
          "name": "description",
          "type": "string"
        },
        {
          "internalType": "string",
          "name": "imageURI",
          "type": "string"
        },
        {
          "internalType": "uint256",
          "name": "price",
          "type": "uint256"
        },
        {
          "internalType": "uint256",
          "name": "stock",
          "type": "uint256"
        },
        {
          "internalType": "bool",
          "name": "exists",
          "type": "bool"
        }
      ],
      "stateMutability": "view",
      "type": "function"
    },
    {
      "inputs": [],
      "name": "nextItemId",
      "outputs": [
        {
          "internalType": "uint256",
          "name": "",
          "type": "uint256"
        }
      ],
      "stateMutability": "view",
      "type": "function"
    },
    {
      "inputs": [],
      "name": "owner",
      "outputs": [
        {
          "internalType": "address",
          "name": "",
          "type": "address"
        }
      ],
      "stateMutability": "view",
      "type": "function"
    },
    {
      "inputs": [],
      "name": "renounceOwnership",
      "outputs": [],
      "stateMutability": "nonpayable",
      "type": "function"
    },
    {
      "inputs": [
        {
          "internalType": "address",
          "name": "from",
          "type": "address"
        },
        {
          "internalType": "address",
          "name": "to",
          "type": "address"
        },
        {
          "internalType": "uint256[]",
          "name": "ids",
          "type": "uint256[]"
        },
        {
          "internalType": "uint256[]",
          "name": "values",
          "type": "uint256[]"
        },
        {
          "internalType": "bytes",
          "name": "data",
          "type": "bytes"
        }
      ],
      "name": "safeBatchTransferFrom",
      "outputs": [],
      "stateMutability": "nonpayable",
      "type": "function"
    },
    {
      "inputs": [
        {
          "internalType": "address",
          "name": "from",
          "type": "address"
        },
        {
          "internalType": "address",
          "name": "to",
          "type": "address"
        },
        {
          "internalType": "uint256",
          "name": "id",
          "type": "uint256"
        },
        {
          "internalType": "uint256",
          "name": "value",
          "type": "uint256"
        },
        {
          "internalType": "bytes",
          "name": "data",
          "type": "bytes"
        }
      ],
      "name": "safeTransferFrom",
      "outputs": [],
      "stateMutability": "nonpayable",
      "type": "function"
    },
    {
      "inputs": [
        {
          "internalType": "address",
          "name": "operator",
          "type": "address"
        },
        {
          "internalType": "bool",
          "name": "approved",
          "type": "bool"
        }
      ],
      "name": "setApprovalForAll",
      "outputs": [],
      "stateMutability": "nonpayable",
      "type": "function"
    },
    {
      "inputs": [
        {
          "internalType": "bytes4",
          "name": "interfaceId",
          "type": "bytes4"
        }
      ],
      "name": "supportsInterface",
      "outputs": [
        {
          "internalType": "bool",
          "name": "",
          "type": "bool"
        }
      ],
      "stateMutability": "view",
      "type": "function"
    },
    {
      "inputs": [
        {
          "internalType": "address",
          "name": "newOwner",
          "type": "address"
        }
      ],
      "name": "transferOwnership",
      "outputs": [],
      "stateMutability": "nonpayable",
      "type": "function"
    },
    {
      "inputs": [
        {
          "internalType": "uint256",
          "name": "",
          "type": "uint256"
        }
      ],
      "name": "uri",
      "outputs": [
        {
          "internalType": "string",
          "name": "",
          "type": "string"
        }
      ],
      "stateMutability": "view",
      "type": "function"
    },
    {
      "inputs": [
        {
          "internalType": "address",
          "name": "",
          "type": "address"
        },
        {
          "internalType": "uint256",
          "name": "",
          "type": "uint256"
        }
      ],
      "name": "userHasItem",
      "outputs": [
        {
          "internalType": "bool",
          "name": "",
          "type": "bool"
        }
      ],
      "stateMutability": "view",
      "type": "function"
    },
    {
      "inputs": [
        {
          "internalType": "address",
          "name": "",
          "type": "address"
        },
        {
          "internalType": "uint256",
          "name": "",
          "type": "uint256"
        }
      ],
      "name": "userOwnedItems",
      "outputs": [
        {
          "internalType": "uint256",
          "name": "",
          "type": "uint256"
        }
      ],
      "stateMutability": "view",
      "type": "function"
    }
  ],
  "bytecode": "0x608060405260016004553480156200001657600080fd5b5033604051806020016040528060008152506200003981620000c760201b60201c565b50600073ffffffffffffffffffffffffffffffffffffffff168173ffffffffffffffffffffffffffffffffffffffff1603620000af5760006040517f1e4fbdf7000000000000000000000000000000000000000000000000000000008152600401620000a69190620001e7565b60405180910390fd5b620000c081620000dc60201b60201c565b5062000565565b8060029081620000d891906200047e565b5050565b6000600360009054906101000a900473ffffffffffffffffffffffffffffffffffffffff16905081600360006101000a81548173ffffffffffffffffffffffffffffffffffffffff021916908373ffffffffffffffffffffffffffffffffffffffff1602179055508173ffffffffffffffffffffffffffffffffffffffff168173ffffffffffffffffffffffffffffffffffffffff167f8be0079c531659141344cd1fd0a4f28419497f9722a3daafe3b4186f6b6457e060405160405180910390a35050565b600073ffffffffffffffffffffffffffffffffffffffff82169050919050565b6000620001cf82620001a2565b9050919050565b620001e181620001c2565b82525050565b6000602082019050620001fe6000830184620001d6565b92915050565b600081519050919050565b7f4e487b7100000000000000000000000000000000000000000000000000000000600052604160045260246000fd5b7f4e487b7100000000000000000000000000000000000000000000000000000000600052602260045260246000fd5b600060028204905060018216806200028657607f821691505b6020821081036200029c576200029b6200023e565b5b50919050565b60008190508160005260206000209050919050565b60006020601f8301049050919050565b600082821b905092915050565b600060088302620003067fffffffffffffffffffffffffffffffffffffffffffffffffffffffffffffffff82620002c7565b620003128683620002c7565b95508019841693508086168417925050509392505050565b6000819050919050565b6000819050919050565b60006200035f6200035962000353846200032a565b62000334565b6200032a565b9050919050565b6000819050919050565b6200037b836200033e565b620003936200038a8262000366565b848454620002d4565b825550505050565b600090565b620003aa6200039b565b620003b781848462000370565b505050565b5b81811015620003df57620003d3600082620003a0565b600181019050620003bd565b5050565b601f8211156200042e57620003f881620002a2565b6200040384620002b7565b8101602085101562000413578190505b6200042b6200042285620002b7565b830182620003bc565b50505b505050565b600082821c905092915050565b6000620004536000198460080262000433565b1980831691505092915050565b60006200046e838362000440565b9150826002028217905092915050565b620004898262000204565b67ffffffffffffffff811115620004a557620004a46200020f565b5b620004b182546200026d565b620004be828285620003e3565b600060209050601f831160018114620004f65760008415620004e1578287015190505b620004ed858262000460565b8655506200055d565b601f1984166200050686620002a2565b60005b82811015620005305784890151825560018201915060208501945060208101905062000509565b868310156200055057848901516200054c601f89168262000440565b8355505b6001600288020188555050505b505050505050565b6138fc80620005756000396000f3fe6080604052600436106101135760003560e01c806373004ca0116100a0578063bfb231d211610064578063bfb231d2146103cc578063c0c7a9d11461040f578063e985e9c51461044c578063f242432a14610489578063f2fde38b146104b257610113565b806373004ca0146102f15780638da5cb5b146103335780639979c0091461035e578063a1fc26e41461037a578063a22cb465146103a357610113565b806325df56a2116100e757806325df56a21461020c5780632eb2c2d6146102495780634e1273f4146102725780636a868974146102af578063715018a6146102da57610113565b8062fdd58e1461011857806301ffc9a7146101555780630e89341c1461019257806316ef8bec146101cf575b600080fd5b34801561012457600080fd5b5061013f600480360381019061013a919061242b565b6104db565b60405161014c919061247a565b60405180910390f35b34801561016157600080fd5b5061017c600480360381019061017791906124ed565b610535565b6040516101899190612535565b60405180910390f35b34801561019e57600080fd5b506101b960048036038101906101b49190612550565b610617565b6040516101c6919061260d565b60405180910390f35b3480156101db57600080fd5b506101f660048036038101906101f1919061262f565b6106ab565b604051610203919061271a565b60405180910390f35b34801561021857600080fd5b50610233600480360381019061022e919061242b565b610742565b6040516102409190612535565b60405180910390f35b34801561025557600080fd5b50610270600480360381019061026b9190612939565b610771565b005b34801561027e57600080fd5b5061029960048036038101906102949190612acb565b610819565b6040516102a6919061271a565b60405180910390f35b3480156102bb57600080fd5b506102c4610928565b6040516102d1919061247a565b60405180910390f35b3480156102e657600080fd5b506102ef61092e565b005b3480156102fd57600080fd5b5061031860048036038101906103139190612550565b610942565b60405161032a96959493929190612b43565b60405180910390f35b34801561033f57600080fd5b50610348610c18565b6040516103559190612bcf565b60405180910390f35b61037860048036038101906103739190612bea565b610c42565b005b34801561038657600080fd5b506103a1600480360381019061039c9190612ccb565b610f14565b005b3480156103af57600080fd5b506103ca60048036038101906103c59190612df4565b611120565b005b3480156103d857600080fd5b506103f360048036038101906103ee9190612550565b611136565b6040516104069796959493929190612e34565b60405180910390f35b34801561041b57600080fd5b506104366004803603810190610431919061242b565b6113a5565b604051610443919061247a565b60405180910390f35b34801561045857600080fd5b50610473600480360381019061046e9190612ebf565b6113d6565b6040516104809190612535565b60405180910390f35b34801561049557600080fd5b506104b060048036038101906104ab9190612eff565b61146a565b005b3480156104be57600080fd5b506104d960048036038101906104d4919061262f565b611512565b005b600080600083815260200190815260200160002060008473ffffffffffffffffffffffffffffffffffffffff1673ffffffffffffffffffffffffffffffffffffffff16815260200190815260200160002054905092915050565b60007fd9b67a26000000000000000000000000000000000000000000000000000000007bffffffffffffffffffffffffffffffffffffffffffffffffffffffff1916827bffffffffffffffffffffffffffffffffffffffffffffffffffffffff1916148061060057507f0e89341c000000000000000000000000000000000000000000000000000000007bffffffffffffffffffffffffffffffffffffffffffffffffffffffff1916827bffffffffffffffffffffffffffffffffffffffffffffffffffffffff1916145b80610610575061060f82611598565b5b9050919050565b60606002805461062690612fc5565b80601f016020809104026020016040519081016040528092919081815260200182805461065290612fc5565b801561069f5780601f106106745761010080835404028352916020019161069f565b820191906000526020600020905b81548152906001019060200180831161068257829003601f168201915b50505050509050919050565b6060600760008373ffffffffffffffffffffffffffffffffffffffff1673ffffffffffffffffffffffffffffffffffffffff16815260200190815260200160002080548060200260200160405190810160405280929190818152602001828054801561073657602002820191906000526020600020905b815481526020019060010190808311610722575b50505050509050919050565b60066020528160005260406000206020528060005260406000206000915091509054906101000a900460ff1681565b600061077b611602565b90508073ffffffffffffffffffffffffffffffffffffffff168673ffffffffffffffffffffffffffffffffffffffff16141580156107c057506107be86826113d6565b155b156108045780866040517fe237d9220000000000000000000000000000000000000000000000000000000081526004016107fb929190612ff6565b60405180910390fd5b610811868686868661160a565b505050505050565b6060815183511461086557815183516040517f5b05999100000000000000000000000000000000000000000000000000000000815260040161085c92919061301f565b60405180910390fd5b6000835167ffffffffffffffff81111561088257610881612741565b5b6040519080825280602002602001820160405280156108b05781602001602082028036833780820191505090505b50905060005b845181101561091d576108ed6108d5828761170290919063ffffffff16565b6108e8838761171690919063ffffffff16565b6104db565b828281518110610900576108ff613048565b5b60200260200101818152505080610916906130a6565b90506108b6565b508091505092915050565b60045481565b61093661172a565b61094060006117b1565b565b6060806060806000806000600560008981526020019081526020016000206040518060e001604052908160008201805461097b90612fc5565b80601f01602080910402602001604051908101604052809291908181526020018280546109a790612fc5565b80156109f45780601f106109c9576101008083540402835291602001916109f4565b820191906000526020600020905b8154815290600101906020018083116109d757829003601f168201915b50505050508152602001600182018054610a0d90612fc5565b80601f0160208091040260200160405190810160405280929190818152602001828054610a3990612fc5565b8015610a865780601f10610a5b57610100808354040283529160200191610a86565b820191906000526020600020905b815481529060010190602001808311610a6957829003601f168201915b50505050508152602001600282018054610a9f90612fc5565b80601f0160208091040260200160405190810160405280929190818152602001828054610acb90612fc5565b8015610b185780601f10610aed57610100808354040283529160200191610b18565b820191906000526020600020905b815481529060010190602001808311610afb57829003601f168201915b50505050508152602001600382018054610b3190612fc5565b80601f0160208091040260200160405190810160405280929190818152602001828054610b5d90612fc5565b8015610baa5780601f10610b7f57610100808354040283529160200191610baa565b820191906000526020600020905b815481529060010190602001808311610b8d57829003601f168201915b5050505050815260200160048201548152602001600582015481526020016006820160009054906101000a900460ff1615151515815250509050806000015181602001518260400151836060015184608001518560a001519650965096509650965096505091939550919395565b6000600360009054906101000a900473ffffffffffffffffffffffffffffffffffffffff16905090565b816005600082815260200190815260200160002060060160009054906101000a900460ff16610ca6576040517f08c379a0000000000000000000000000000000000000000000000000000000008152600401610c9d9061313a565b60405180910390fd5b60006005600085815260200190815260200160002090508281600501541015610d04576040517f08c379a0000000000000000000000000000000000000000000000000000000008152600401610cfb906131a6565b60405180910390fd5b828160040154610d1491906131c6565b341015610d56576040517f08c379a0000000000000000000000000000000000000000000000000000000008152600401610d4d90613254565b60405180910390fd5b82816005016000828254610d6a9190613274565b92505081905550610d8c33858560405180602001604052806000815250611877565b600660003373ffffffffffffffffffffffffffffffffffffffff1673ffffffffffffffffffffffffffffffffffffffff168152602001908152602001600020600085815260200190815260200160002060009054906101000a900460ff16610ebe576001600660003373ffffffffffffffffffffffffffffffffffffffff1673ffffffffffffffffffffffffffffffffffffffff168152602001908152602001600020600086815260200190815260200160002060006101000a81548160ff021916908315150217905550600760003373ffffffffffffffffffffffffffffffffffffffff1673ffffffffffffffffffffffffffffffffffffffff1681526020019081526020016000208490806001815401808255809150506001900390600052602060002001600090919091909150555b3373ffffffffffffffffffffffffffffffffffffffff167f1452773cf753d0d7c71ed9990f7c7e2bdde4a2d08d187b3647953877e400488d8585604051610f0692919061301f565b60405180910390a250505050565b610f1c61172a565b6000865111610f60576040517f08c379a0000000000000000000000000000000000000000000000000000000008152600401610f57906132f4565b60405180910390fd5b60008211610fa3576040517f08c379a0000000000000000000000000000000000000000000000000000000008152600401610f9a90613360565b60405180910390fd5b60008111610fe6576040517f08c379a0000000000000000000000000000000000000000000000000000000008152600401610fdd906133cc565b60405180910390fd5b6040518060e001604052808781526020018681526020018581526020018481526020018381526020018281526020016001151581525060056000600454815260200190815260200160002060008201518160000190816110469190613598565b50602082015181600101908161105c9190613598565b5060408201518160020190816110729190613598565b5060608201518160030190816110889190613598565b506080820151816004015560a0820151816005015560c08201518160060160006101000a81548160ff0219169083151502179055509050506004547f366a3a77b5ebdf4495c19632341b2529402ce10dde34ddeac1d04b61e3cbb3f3878785856040516110f8949392919061366a565b60405180910390a260046000815480929190611113906130a6565b9190505550505050505050565b61113261112b611602565b8383611910565b5050565b600560205280600052604060002060009150905080600001805461115990612fc5565b80601f016020809104026020016040519081016040528092919081815260200182805461118590612fc5565b80156111d25780601f106111a7576101008083540402835291602001916111d2565b820191906000526020600020905b8154815290600101906020018083116111b557829003601f168201915b5050505050908060010180546111e790612fc5565b80601f016020809104026020016040519081016040528092919081815260200182805461121390612fc5565b80156112605780601f1061123557610100808354040283529160200191611260565b820191906000526020600020905b81548152906001019060200180831161124357829003601f168201915b50505050509080600201805461127590612fc5565b80601f01602080910402602001604051908101604052809291908181526020018280546112a190612fc5565b80156112ee5780601f106112c3576101008083540402835291602001916112ee565b820191906000526020600020905b8154815290600101906020018083116112d157829003601f168201915b50505050509080600301805461130390612fc5565b80601f016020809104026020016040519081016040528092919081815260200182805461132f90612fc5565b801561137c5780601f106113515761010080835404028352916020019161137c565b820191906000526020600020905b81548152906001019060200180831161135f57829003601f168201915b5050505050908060040154908060050154908060060160009054906101000a900460ff16905087565b600760205281600052604060002081815481106113c157600080fd5b90600052602060002001600091509150505481565b6000600160008473ffffffffffffffffffffffffffffffffffffffff1673ffffffffffffffffffffffffffffffffffffffff16815260200190815260200160002060008373ffffffffffffffffffffffffffffffffffffffff1673ffffffffffffffffffffffffffffffffffffffff16815260200190815260200160002060009054906101000a900460ff16905092915050565b6000611474611602565b90508073ffffffffffffffffffffffffffffffffffffffff168673ffffffffffffffffffffffffffffffffffffffff16141580156114b957506114b786826113d6565b155b156114fd5780866040517fe237d9220000000000000000000000000000000000000000000000000000000081526004016114f4929190612ff6565b60405180910390fd5b61150a8686868686611a80565b505050505050565b61151a61172a565b600073ffffffffffffffffffffffffffffffffffffffff168173ffffffffffffffffffffffffffffffffffffffff160361158c5760006040517f1e4fbdf70000000000000000000000000000000000000000000000000000000081526004016115839190612bcf565b60405180910390fd5b611595816117b1565b50565b60007f01ffc9a7000000000000000000000000000000000000000000000000000000007bffffffffffffffffffffffffffffffffffffffffffffffffffffffff1916827bffffffffffffffffffffffffffffffffffffffffffffffffffffffff1916149050919050565b600033905090565b600073ffffffffffffffffffffffffffffffffffffffff168473ffffffffffffffffffffffffffffffffffffffff160361167c5760006040517f57f447ce0000000000000000000000000000000000000000000000000000000081526004016116739190612bcf565b60405180910390fd5b600073ffffffffffffffffffffffffffffffffffffffff168573ffffffffffffffffffffffffffffffffffffffff16036116ee5760006040517f01a835140000000000000000000000000000000000000000000000000000000081526004016116e59190612bcf565b60405180910390fd5b6116fb8585858585611b8b565b5050505050565b600060208202602084010151905092915050565b600060208202602084010151905092915050565b611732611602565b73ffffffffffffffffffffffffffffffffffffffff16611750610c18565b73ffffffffffffffffffffffffffffffffffffffff16146117af57611773611602565b6040517f118cdaa70000000000000000000000000000000000000000000000000000000081526004016117a69190612bcf565b60405180910390fd5b565b6000600360009054906101000a900473ffffffffffffffffffffffffffffffffffffffff16905081600360006101000a81548173ffffffffffffffffffffffffffffffffffffffff021916908373ffffffffffffffffffffffffffffffffffffffff1602179055508173ffffffffffffffffffffffffffffffffffffffff168173ffffffffffffffffffffffffffffffffffffffff167f8be0079c531659141344cd1fd0a4f28419497f9722a3daafe3b4186f6b6457e060405160405180910390a35050565b600073ffffffffffffffffffffffffffffffffffffffff168473ffffffffffffffffffffffffffffffffffffffff16036118e95760006040517f57f447ce0000000000000000000000000000000000000000000000000000000081526004016118e09190612bcf565b60405180910390fd5b6000806118f68585611c3d565b91509150611908600087848487611b8b565b505050505050565b600073ffffffffffffffffffffffffffffffffffffffff168273ffffffffffffffffffffffffffffffffffffffff16036119825760006040517fced3e1000000000000000000000000000000000000000000000000000000000081526004016119799190612bcf565b60405180910390fd5b80600160008573ffffffffffffffffffffffffffffffffffffffff1673ffffffffffffffffffffffffffffffffffffffff16815260200190815260200160002060008473ffffffffffffffffffffffffffffffffffffffff1673ffffffffffffffffffffffffffffffffffffffff16815260200190815260200160002060006101000a81548160ff0219169083151502179055508173ffffffffffffffffffffffffffffffffffffffff168373ffffffffffffffffffffffffffffffffffffffff167f17307eab39ab6107e8899845ad3d59bd9653f200f220920489ca2b5937696c3183604051611a739190612535565b60405180910390a3505050565b600073ffffffffffffffffffffffffffffffffffffffff168473ffffffffffffffffffffffffffffffffffffffff1603611af25760006040517f57f447ce000000000000000000000000000000000000000000000000000000008152600401611ae99190612bcf565b60405180910390fd5b600073ffffffffffffffffffffffffffffffffffffffff168573ffffffffffffffffffffffffffffffffffffffff1603611b645760006040517f01a83514000000000000000000000000000000000000000000000000000000008152600401611b5b9190612bcf565b60405180910390fd5b600080611b718585611c3d565b91509150611b828787848487611b8b565b50505050505050565b611b9785858585611c6d565b600073ffffffffffffffffffffffffffffffffffffffff168473ffffffffffffffffffffffffffffffffffffffff1614611c36576000611bd5611602565b90506001845103611c25576000611bf660008661171690919063ffffffff16565b90506000611c0e60008661171690919063ffffffff16565b9050611c1e83898985858961201b565b5050611c34565b611c338187878787876121cf565b5b505b5050505050565b60608060405191506001825283602083015260408201905060018152826020820152604081016040529250929050565b8051825114611cb757815181516040517f5b059991000000000000000000000000000000000000000000000000000000008152600401611cae92919061301f565b60405180910390fd5b6000611cc1611602565b905060005b8351811015611ed6576000611ce4828661171690919063ffffffff16565b90506000611cfb838661171690919063ffffffff16565b9050600073ffffffffffffffffffffffffffffffffffffffff168873ffffffffffffffffffffffffffffffffffffffff1614611e2857600080600084815260200190815260200160002060008a73ffffffffffffffffffffffffffffffffffffffff1673ffffffffffffffffffffffffffffffffffffffff16815260200190815260200160002054905081811015611dd057888183856040517f03dee4c5000000000000000000000000000000000000000000000000000000008152600401611dc794939291906136bd565b60405180910390fd5b81810360008085815260200190815260200160002060008b73ffffffffffffffffffffffffffffffffffffffff1673ffffffffffffffffffffffffffffffffffffffff16815260200190815260200160002081905550505b600073ffffffffffffffffffffffffffffffffffffffff168773ffffffffffffffffffffffffffffffffffffffff1614611ec3578060008084815260200190815260200160002060008973ffffffffffffffffffffffffffffffffffffffff1673ffffffffffffffffffffffffffffffffffffffff1681526020019081526020016000206000828254611ebb9190613702565b925050819055505b505080611ecf906130a6565b9050611cc6565b506001835103611f95576000611ef660008561171690919063ffffffff16565b90506000611f0e60008561171690919063ffffffff16565b90508573ffffffffffffffffffffffffffffffffffffffff168773ffffffffffffffffffffffffffffffffffffffff168473ffffffffffffffffffffffffffffffffffffffff167fc3d58168c5ae7397731d063d5bbf3d657854427343f4c083240f7aacaa2d0f628585604051611f8692919061301f565b60405180910390a45050612014565b8373ffffffffffffffffffffffffffffffffffffffff168573ffffffffffffffffffffffffffffffffffffffff168273ffffffffffffffffffffffffffffffffffffffff167f4a39dc06d4c0dbc64b70af90fd698a233a518aa5d07e595d983b8c0526c8f7fb868660405161200b929190613736565b60405180910390a45b5050505050565b60008473ffffffffffffffffffffffffffffffffffffffff163b11156121c7578373ffffffffffffffffffffffffffffffffffffffff1663f23a6e6187878686866040518663ffffffff1660e01b815260040161207c9594939291906137c2565b6020604051808303816000875af19250505080156120b857506040513d601f19601f820116820180604052508101906120b59190613831565b60015b61213c573d80600081146120e8576040519150601f19603f3d011682016040523d82523d6000602084013e6120ed565b606091505b50600081510361213457846040517f57f447ce00000000000000000000000000000000000000000000000000000000815260040161212b9190612bcf565b60405180910390fd5b805181602001fd5b63f23a6e6160e01b7bffffffffffffffffffffffffffffffffffffffffffffffffffffffff1916817bffffffffffffffffffffffffffffffffffffffffffffffffffffffff1916146121c557846040517f57f447ce0000000000000000000000000000000000000000000000000000000081526004016121bc9190612bcf565b60405180910390fd5b505b505050505050565b60008473ffffffffffffffffffffffffffffffffffffffff163b111561237b578373ffffffffffffffffffffffffffffffffffffffff1663bc197c8187878686866040518663ffffffff1660e01b815260040161223095949392919061385e565b6020604051808303816000875af192505050801561226c57506040513d601f19601f820116820180604052508101906122699190613831565b60015b6122f0573d806000811461229c576040519150601f19603f3d011682016040523d82523d6000602084013e6122a1565b606091505b5060008151036122e857846040517f57f447ce0000000000000000000000000000000000000000000000000000000081526004016122df9190612bcf565b60405180910390fd5b805181602001fd5b63bc197c8160e01b7bffffffffffffffffffffffffffffffffffffffffffffffffffffffff1916817bffffffffffffffffffffffffffffffffffffffffffffffffffffffff19161461237957846040517f57f447ce0000000000000000000000000000000000000000000000000000000081526004016123709190612bcf565b60405180910390fd5b505b505050505050565b6000604051905090565b600080fd5b600080fd5b600073ffffffffffffffffffffffffffffffffffffffff82169050919050565b60006123c282612397565b9050919050565b6123d2816123b7565b81146123dd57600080fd5b50565b6000813590506123ef816123c9565b92915050565b6000819050919050565b612408816123f5565b811461241357600080fd5b50565b600081359050612425816123ff565b92915050565b600080604083850312156124425761244161238d565b5b6000612450858286016123e0565b925050602061246185828601612416565b9150509250929050565b612474816123f5565b82525050565b600060208201905061248f600083018461246b565b92915050565b60007fffffffff0000000000000000000000000000000000000000000000000000000082169050919050565b6124ca81612495565b81146124d557600080fd5b50565b6000813590506124e7816124c1565b92915050565b6000602082840312156125035761250261238d565b5b6000612511848285016124d8565b91505092915050565b60008115159050919050565b61252f8161251a565b82525050565b600060208201905061254a6000830184612526565b92915050565b6000602082840312156125665761256561238d565b5b600061257484828501612416565b91505092915050565b600081519050919050565b600082825260208201905092915050565b60005b838110156125b757808201518184015260208101905061259c565b60008484015250505050565b6000601f19601f8301169050919050565b60006125df8261257d565b6125e98185612588565b93506125f9818560208601612599565b612602816125c3565b840191505092915050565b6000602082019050818103600083015261262781846125d4565b905092915050565b6000602082840312156126455761264461238d565b5b6000612653848285016123e0565b91505092915050565b600081519050919050565b600082825260208201905092915050565b6000819050602082019050919050565b612691816123f5565b82525050565b60006126a38383612688565b60208301905092915050565b6000602082019050919050565b60006126c78261265c565b6126d18185612667565b93506126dc83612678565b8060005b8381101561270d5781516126f48882612697565b97506126ff836126af565b9250506001810190506126e0565b5085935050505092915050565b6000602082019050818103600083015261273481846126bc565b905092915050565b600080fd5b7f4e487b7100000000000000000000000000000000000000000000000000000000600052604160045260246000fd5b612779826125c3565b810181811067ffffffffffffffff8211171561279857612797612741565b5b80604052505050565b60006127ab612383565b90506127b78282612770565b919050565b600067ffffffffffffffff8211156127d7576127d6612741565b5b602082029050602081019050919050565b600080fd5b60006128006127fb846127bc565b6127a1565b90508083825260208201905060208402830185811115612823576128226127e8565b5b835b8181101561284c57806128388882612416565b845260208401935050602081019050612825565b5050509392505050565b600082601f83011261286b5761286a61273c565b5b813561287b8482602086016127ed565b91505092915050565b600080fd5b600067ffffffffffffffff8211156128a4576128a3612741565b5b6128ad826125c3565b9050602081019050919050565b82818337600083830152505050565b60006128dc6128d784612889565b6127a1565b9050828152602081018484840111156128f8576128f7612884565b5b6129038482856128ba565b509392505050565b600082601f8301126129205761291f61273c565b5b81356129308482602086016128c9565b91505092915050565b600080600080600060a086880312156129555761295461238d565b5b6000612963888289016123e0565b9550506020612974888289016123e0565b945050604086013567ffffffffffffffff81111561299557612994612392565b5b6129a188828901612856565b935050606086013567ffffffffffffffff8111156129c2576129c1612392565b5b6129ce88828901612856565b925050608086013567ffffffffffffffff8111156129ef576129ee612392565b5b6129fb8882890161290b565b9150509295509295909350565b600067ffffffffffffffff821115612a2357612a22612741565b5b602082029050602081019050919050565b6000612a47612a4284612a08565b6127a1565b90508083825260208201905060208402830185811115612a6a57612a696127e8565b5b835b81811015612a935780612a7f88826123e0565b845260208401935050602081019050612a6c565b5050509392505050565b600082601f830112612ab257612ab161273c565b5b8135612ac2848260208601612a34565b91505092915050565b60008060408385031215612ae257612ae161238d565b5b600083013567ffffffffffffffff811115612b0057612aff612392565b5b612b0c85828601612a9d565b925050602083013567ffffffffffffffff811115612b2d57612b2c612392565b5b612b3985828601612856565b9150509250929050565b600060c0820190508181036000830152612b5d81896125d4565b90508181036020830152612b7181886125d4565b90508181036040830152612b8581876125d4565b90508181036060830152612b9981866125d4565b9050612ba8608083018561246b565b612bb560a083018461246b565b979650505050505050565b612bc9816123b7565b82525050565b6000602082019050612be46000830184612bc0565b92915050565b60008060408385031215612c0157612c0061238d565b5b6000612c0f85828601612416565b9250506020612c2085828601612416565b9150509250929050565b600067ffffffffffffffff821115612c4557612c44612741565b5b612c4e826125c3565b9050602081019050919050565b6000612c6e612c6984612c2a565b6127a1565b905082815260208101848484011115612c8a57612c89612884565b5b612c958482856128ba565b509392505050565b600082601f830112612cb257612cb161273c565b5b8135612cc2848260208601612c5b565b91505092915050565b60008060008060008060c08789031215612ce857612ce761238d565b5b600087013567ffffffffffffffff811115612d0657612d05612392565b5b612d1289828a01612c9d565b965050602087013567ffffffffffffffff811115612d3357612d32612392565b5b612d3f89828a01612c9d565b955050604087013567ffffffffffffffff811115612d6057612d5f612392565b5b612d6c89828a01612c9d565b945050606087013567ffffffffffffffff811115612d8d57612d8c612392565b5b612d9989828a01612c9d565b9350506080612daa89828a01612416565b92505060a0612dbb89828a01612416565b9150509295509295509295565b612dd18161251a565b8114612ddc57600080fd5b50565b600081359050612dee81612dc8565b92915050565b60008060408385031215612e0b57612e0a61238d565b5b6000612e19858286016123e0565b9250506020612e2a85828601612ddf565b9150509250929050565b600060e0820190508181036000830152612e4e818a6125d4565b90508181036020830152612e6281896125d4565b90508181036040830152612e7681886125d4565b90508181036060830152612e8a81876125d4565b9050612e99608083018661246b565b612ea660a083018561246b565b612eb360c0830184612526565b98975050505050505050565b60008060408385031215612ed657612ed561238d565b5b6000612ee4858286016123e0565b9250506020612ef5858286016123e0565b9150509250929050565b600080600080600060a08688031215612f1b57612f1a61238d565b5b6000612f29888289016123e0565b9550506020612f3a888289016123e0565b9450506040612f4b88828901612416565b9350506060612f5c88828901612416565b925050608086013567ffffffffffffffff811115612f7d57612f7c612392565b5b612f898882890161290b565b9150509295509295909350565b7f4e487b7100000000000000000000000000000000000000000000000000000000600052602260045260246000fd5b60006002820490506001821680612fdd57607f821691505b602082108103612ff057612fef612f96565b5b50919050565b600060408201905061300b6000830185612bc0565b6130186020830184612bc0565b9392505050565b6000604082019050613034600083018561246b565b613041602083018461246b565b9392505050565b7f4e487b7100000000000000000000000000000000000000000000000000000000600052603260045260246000fd5b7f4e487b7100000000000000000000000000000000000000000000000000000000600052601160045260246000fd5b60006130b1826123f5565b91507fffffffffffffffffffffffffffffffffffffffffffffffffffffffffffffffff82036130e3576130e2613077565b5b600182019050919050565b7f4974656d20646f6573206e6f7420657869737400000000000000000000000000600082015250565b6000613124601383612588565b915061312f826130ee565b602082019050919050565b6000602082019050818103600083015261315381613117565b9050919050565b7f4e6f7420656e6f7567682073746f636b20617661696c61626c65000000000000600082015250565b6000613190601a83612588565b915061319b8261315a565b602082019050919050565b600060208201905081810360008301526131bf81613183565b9050919050565b60006131d1826123f5565b91506131dc836123f5565b92508282026131ea816123f5565b9150828204841483151761320157613200613077565b5b5092915050565b7f496e73756666696369656e74204554482073656e740000000000000000000000600082015250565b600061323e601583612588565b915061324982613208565b602082019050919050565b6000602082019050818103600083015261326d81613231565b9050919050565b600061327f826123f5565b915061328a836123f5565b92508282039050818111156132a2576132a1613077565b5b92915050565b7f4e616d652063616e6e6f7420626520656d707479000000000000000000000000600082015250565b60006132de601483612588565b91506132e9826132a8565b602082019050919050565b6000602082019050818103600083015261330d816132d1565b9050919050565b7f5072696365206d7573742062652067726561746572207468616e207a65726f00600082015250565b600061334a601f83612588565b915061335582613314565b602082019050919050565b600060208201905081810360008301526133798161333d565b9050919050565b7f53746f636b206d7573742062652067726561746572207468616e207a65726f00600082015250565b60006133b6601f83612588565b91506133c182613380565b602082019050919050565b600060208201905081810360008301526133e5816133a9565b9050919050565b60008190508160005260206000209050919050565b60006020601f8301049050919050565b600082821b905092915050565b60006008830261344e7fffffffffffffffffffffffffffffffffffffffffffffffffffffffffffffffff82613411565b6134588683613411565b95508019841693508086168417925050509392505050565b6000819050919050565b600061349561349061348b846123f5565b613470565b6123f5565b9050919050565b6000819050919050565b6134af8361347a565b6134c36134bb8261349c565b84845461341e565b825550505050565b600090565b6134d86134cb565b6134e38184846134a6565b505050565b5b81811015613507576134fc6000826134d0565b6001810190506134e9565b5050565b601f82111561354c5761351d816133ec565b61352684613401565b81016020851015613535578190505b61354961354185613401565b8301826134e8565b50505b505050565b600082821c905092915050565b600061356f60001984600802613551565b1980831691505092915050565b6000613588838361355e565b9150826002028217905092915050565b6135a18261257d565b67ffffffffffffffff8111156135ba576135b9612741565b5b6135c48254612fc5565b6135cf82828561350b565b600060209050601f83116001811461360257600084156135f0578287015190505b6135fa858261357c565b865550613662565b601f198416613610866133ec565b60005b8281101561363857848901518255600182019150602085019450602081019050613613565b868310156136555784890151613651601f89168261355e565b8355505b6001600288020188555050505b505050505050565b6000608082019050818103600083015261368481876125d4565b9050818103602083015261369881866125d4565b90506136a7604083018561246b565b6136b4606083018461246b565b95945050505050565b60006080820190506136d26000830187612bc0565b6136df602083018661246b565b6136ec604083018561246b565b6136f9606083018461246b565b95945050505050565b600061370d826123f5565b9150613718836123f5565b92508282019050808211156137305761372f613077565b5b92915050565b6000604082019050818103600083015261375081856126bc565b9050818103602083015261376481846126bc565b90509392505050565b600081519050919050565b600082825260208201905092915050565b60006137948261376d565b61379e8185613778565b93506137ae818560208601612599565b6137b7816125c3565b840191505092915050565b600060a0820190506137d76000830188612bc0565b6137e46020830187612bc0565b6137f1604083018661246b565b6137fe606083018561246b565b81810360808301526138108184613789565b90509695505050505050565b60008151905061382b816124c1565b92915050565b6000602082840312156138475761384661238d565b5b60006138558482850161381c565b91505092915050565b600060a0820190506138736000830188612bc0565b6138806020830187612bc0565b818103604083015261389281866126bc565b905081810360608301526138a681856126bc565b905081810360808301526138ba8184613789565b9050969550505050505056fea264697066735822122031de9790e759712966f5e7093ee06b3464d19f75319f96a8b90522314263afc164736f6c63430008140033",
  "linkReferences": {},
  "deployedLinkReferences": {}
}